{
  "_format": "hh-sol-artifact-1",
  "contractName": "Burnance",
  "sourceName": "contracts/Burnance.sol",
  "abi": [
    {
      "inputs": [],
      "stateMutability": "nonpayable",
      "type": "constructor"
    },
    {
      "anonymous": false,
      "inputs": [
        {
          "indexed": true,
          "internalType": "address",
          "name": "previousOwner",
          "type": "address"
        },
        {
          "indexed": true,
          "internalType": "address",
          "name": "newOwner",
          "type": "address"
        }
      ],
      "name": "OwnershipTransferred",
      "type": "event"
    },
    {
      "anonymous": false,
      "inputs": [
        {
          "indexed": false,
          "internalType": "address",
          "name": "account",
          "type": "address"
        }
      ],
      "name": "Paused",
      "type": "event"
    },
    {
      "anonymous": false,
      "inputs": [
        {
          "indexed": false,
          "internalType": "address",
          "name": "account",
          "type": "address"
        }
      ],
      "name": "Unpaused",
      "type": "event"
    },
    {
      "inputs": [
        {
          "internalType": "address[]",
          "name": "tokenContracts",
          "type": "address[]"
        },
        {
          "internalType": "uint256[]",
          "name": "tokenIds",
          "type": "uint256[]"
        },
        {
          "internalType": "uint256[]",
          "name": "counts",
          "type": "uint256[]"
        }
      ],
      "name": "batchTransfer",
      "outputs": [],
      "stateMutability": "nonpayable",
      "type": "function"
    },
    {
      "inputs": [],
      "name": "defaultPrice",
      "outputs": [
        {
          "internalType": "uint256",
          "name": "",
          "type": "uint256"
        }
      ],
      "stateMutability": "view",
      "type": "function"
    },
    {
      "inputs": [],
      "name": "furnance",
      "outputs": [
        {
          "internalType": "address",
          "name": "",
          "type": "address"
        }
      ],
      "stateMutability": "view",
      "type": "function"
    },
    {
      "inputs": [],
      "name": "guaranteeFee",
      "outputs": [
        {
          "internalType": "uint256",
          "name": "",
          "type": "uint256"
        }
      ],
      "stateMutability": "view",
      "type": "function"
    },
    {
      "inputs": [
        {
          "internalType": "address",
          "name": "theTokenContract",
          "type": "address"
        },
        {
          "internalType": "uint256",
          "name": "tokenId",
          "type": "uint256"
        },
        {
          "internalType": "uint256",
          "name": "count",
          "type": "uint256"
        }
      ],
      "name": "guaranteeTransfer",
      "outputs": [],
      "stateMutability": "payable",
      "type": "function"
    },
    {
      "inputs": [],
      "name": "maxTokensPerTx",
      "outputs": [
        {
          "internalType": "uint256",
          "name": "",
          "type": "uint256"
        }
      ],
      "stateMutability": "view",
      "type": "function"
    },
    {
      "inputs": [],
      "name": "owner",
      "outputs": [
        {
          "internalType": "address",
          "name": "",
          "type": "address"
        }
      ],
      "stateMutability": "view",
      "type": "function"
    },
    {
      "inputs": [],
      "name": "pause",
      "outputs": [],
      "stateMutability": "nonpayable",
      "type": "function"
    },
    {
      "inputs": [],
      "name": "paused",
      "outputs": [
        {
          "internalType": "bool",
          "name": "",
          "type": "bool"
        }
      ],
      "stateMutability": "view",
      "type": "function"
    },
    {
      "inputs": [],
      "name": "renounceOwnership",
      "outputs": [],
      "stateMutability": "nonpayable",
      "type": "function"
    },
    {
      "inputs": [
        {
          "internalType": "uint256",
          "name": "_defaultPrice",
          "type": "uint256"
        }
      ],
      "name": "setDefaultPrice",
      "outputs": [],
      "stateMutability": "nonpayable",
      "type": "function"
    },
    {
      "inputs": [
        {
          "internalType": "address",
          "name": "_furnance",
          "type": "address"
        }
      ],
      "name": "setFurnance",
      "outputs": [],
      "stateMutability": "nonpayable",
      "type": "function"
    },
    {
      "inputs": [
        {
          "internalType": "uint256",
          "name": "_guaranteeFee",
          "type": "uint256"
        }
      ],
      "name": "setGuaranteeFee",
      "outputs": [],
      "stateMutability": "nonpayable",
      "type": "function"
    },
    {
      "inputs": [
        {
          "internalType": "uint256",
          "name": "_maxTokensPerTx",
          "type": "uint256"
        }
      ],
      "name": "setMaxTokensPerTx",
      "outputs": [],
      "stateMutability": "nonpayable",
      "type": "function"
    },
    {
      "inputs": [
        {
          "internalType": "address",
          "name": "contractAddress",
          "type": "address"
        },
        {
          "internalType": "uint256",
          "name": "price",
          "type": "uint256"
        }
      ],
      "name": "setPriceByContract",
      "outputs": [],
      "stateMutability": "nonpayable",
      "type": "function"
    },
    {
      "inputs": [
        {
          "internalType": "address",
          "name": "newOwner",
          "type": "address"
        }
      ],
      "name": "transferOwnership",
      "outputs": [],
      "stateMutability": "nonpayable",
      "type": "function"
    },
    {
      "inputs": [
        {
          "internalType": "address",
          "name": "",
          "type": "address"
        }
      ],
      "name": "transferedNFTs",
      "outputs": [
        {
          "internalType": "address",
          "name": "tokenContract",
          "type": "address"
        },
        {
          "internalType": "uint256",
          "name": "tokenID",
          "type": "uint256"
        },
        {
          "internalType": "uint256",
          "name": "count",
          "type": "uint256"
        }
      ],
      "stateMutability": "view",
      "type": "function"
    },
    {
      "inputs": [],
      "name": "unpause",
      "outputs": [],
      "stateMutability": "nonpayable",
      "type": "function"
    },
    {
      "inputs": [],
      "name": "withdrawBalance",
      "outputs": [],
      "stateMutability": "nonpayable",
      "type": "function"
    },
    {
      "stateMutability": "payable",
      "type": "receive"
    }
  ],
  "bytecode": "0x608060405260018054600160a81b600160e81b03191667d9b67a2680ac58cd60a81b179055600280546001600160a01b0319169055633b9aca006003556377359400600455606460055534801561005557600080fd5b5060016000819055805460ff1916905561006e33610073565b6100cd565b600180546001600160a01b03838116610100818102610100600160a81b031985161790945560405193909204169182907f8be0079c531659141344cd1fd0a4f28419497f9722a3daafe3b4186f6b6457e090600090a35050565b6115d5806100dc6000396000f3fe6080604052600436106101185760003560e01c8063715018a6116100a05780639d1a5531116100645780639d1a553114610322578063b9bed05e14610335578063c9f01d8314610355578063e69e04b314610375578063f2fde38b1461038b57600080fd5b8063715018a6146102545780637edc1f78146102695780638456cb591461027f5780638da5cb5b1461029457806398be836b146102b757600080fd5b806348a7308c116100e757806348a7308c1461019b5780635c975abb146101d85780635e307a48146101fb5780635fd8c7101461021f5780636d3c7ec51461023457600080fd5b80631e60354e146101245780631ef690c41461014657806335346276146101665780633f4ba83a1461018657600080fd5b3661011f57005b600080fd5b34801561013057600080fd5b5061014461013f3660046112c1565b6103ab565b005b34801561015257600080fd5b5061014461016136600461132f565b6103d5565b34801561017257600080fd5b506101446101813660046113c9565b610bb2565b34801561019257600080fd5b50610144610bbf565b3480156101a757600080fd5b506002546101bb906001600160a01b031681565b6040516001600160a01b0390911681526020015b60405180910390f35b3480156101e457600080fd5b5060015460ff1660405190151581526020016101cf565b34801561020757600080fd5b5061021160055481565b6040519081526020016101cf565b34801561022b57600080fd5b50610144610bd1565b34801561024057600080fd5b5061014461024f3660046113c9565b610c08565b34801561026057600080fd5b50610144610c15565b34801561027557600080fd5b5061021160045481565b34801561028b57600080fd5b50610144610c27565b3480156102a057600080fd5b5060015461010090046001600160a01b03166101bb565b3480156102c357600080fd5b506102fd6102d23660046112c1565b6006602052600090815260409020805460018201546002909201546001600160a01b03909116919083565b604080516001600160a01b0390941684526020840192909252908201526060016101cf565b6101446103303660046113e2565b610c37565b34801561034157600080fd5b506101446103503660046113c9565b610fe6565b34801561036157600080fd5b50610144610370366004611415565b610ff3565b34801561038157600080fd5b5061021160035481565b34801561039757600080fd5b506101446103a63660046112c1565b611017565b6103b361108d565b600280546001600160a01b0319166001600160a01b0392909216919091179055565b6103dd6110ed565b6002600054036104345760405162461bcd60e51b815260206004820152601f60248201527f5265656e7472616e637947756172643a207265656e7472616e742063616c6c0060448201526064015b60405180910390fd5b60026000819055546001600160a01b03166104615760405162461bcd60e51b815260040161042b9061143f565b60648511156104a45760405162461bcd60e51b815260206004820152600f60248201526e6d617820313030206174206f6e636560881b604482015260640161042b565b846104fd5760405162461bcd60e51b815260206004820152602360248201527f4d75737420686176652031206f72206d6f726520746f6b656e20636f6e74726160448201526263747360e81b606482015260840161042b565b848314801561050b57508281145b6105615760405162461bcd60e51b815260206004820152602160248201527f416c6c20706172616d73206d757374206861766520657175616c206c656e67746044820152600d60fb1b606482015260840161042b565b60008080805b88811015610b1057600086868381811061058357610583611481565b90506020020135116105e65760405162461bcd60e51b815260206004820152602660248201527f546f6b656e20636f756e74206d7573742062652067726561746572207468616e604482015265103d32b9379760d11b606482015260840161042b565b8989828181106105f8576105f8611481565b905060200201602081019061060d91906112c1565b6001546040516301ffc9a760e01b8152600160a81b90910460e01b6001600160e01b03191660048201529094506001600160a01b038516906301ffc9a790602401602060405180830381865afa15801561066b573d6000803e3d6000fd5b505050506040513d601f19601f8201168201806040525081019061068f9190611497565b156106e15761069f6001846114cf565b92506106d08a8a838181106106b6576106b6611481565b90506020020160208101906106cb91906112c1565b611133565b6106da90836114cf565b91506107c8565b6001546040516301ffc9a760e01b8152600160c81b90910460e01b6001600160e01b03191660048201526001600160a01b038516906301ffc9a790602401602060405180830381865afa15801561073c573d6000803e3d6000fd5b505050506040513d601f19601f820116820180604052508101906107609190611497565b156107c35785858281811061077757610777611481565b905060200201358361078991906114cf565b925085858281811061079d5761079d611481565b905060200201356107b98b8b848181106106b6576106b6611481565b6106d091906114e7565b610afe565b60055483106108195760405162461bcd60e51b815260206004820152601c60248201527f4d6178696d756d20746f6b656e20636f756e7420726561636865642e00000000604482015260640161042b565b8147116108685760405162461bcd60e51b815260206004820152601d60248201527f4e6f7420656e6f75676820657468657220696e20636f6e74726163742e000000604482015260640161042b565b60405163e985e9c560e01b81523360048201523060248201526001600160a01b0385169063e985e9c590604401602060405180830381865afa1580156108b2573d6000803e3d6000fd5b505050506040513d601f19601f820116820180604052508101906108d69190611497565b6108f25760405162461bcd60e51b815260040161042b90611506565b6001546040516301ffc9a760e01b8152600160a81b90910460e01b6001600160e01b03191660048201526001600160a01b038516906301ffc9a790602401602060405180830381865afa15801561094d573d6000803e3d6000fd5b505050506040513d601f19601f820116820180604052508101906109719190611497565b15610a3b5789898281811061098857610988611481565b905060200201602081019061099d91906112c1565b6002546001600160a01b03918216916323b872dd913391168b8b868181106109c7576109c7611481565b6040516001600160e01b031960e088901b1681526001600160a01b03958616600482015294909316602485015250602090910201356044820152606401600060405180830381600087803b158015610a1e57600080fd5b505af1158015610a32573d6000803e3d6000fd5b50505050610afe565b898982818110610a4d57610a4d611481565b9050602002016020810190610a6291906112c1565b6002546001600160a01b039182169163f242432a913391168b8b86818110610a8c57610a8c611481565b905060200201358a8a87818110610aa557610aa5611481565b905060200201356040518563ffffffff1660e01b8152600401610acb949392919061154e565b600060405180830381600087803b158015610ae557600080fd5b505af1158015610af9573d6000803e3d6000fd5b505050505b80610b0881611586565b915050610567565b50604051600090339083908381818185875af1925050503d8060008114610b53576040519150601f19603f3d011682016040523d82523d6000602084013e610b58565b606091505b5050905080610ba15760405162461bcd60e51b81526020600482015260156024820152742330b4b632b2103a379039b2b7321032ba3432b91760591b604482015260640161042b565b505060016000555050505050505050565b610bba61108d565b600455565b610bc761108d565b610bcf61117a565b565b610bd961108d565b60405133904780156108fc02916000818181858888f19350505050158015610c05573d6000803e3d6000fd5b50565b610c1061108d565b600355565b610c1d61108d565b610bcf60006111cc565b610c2f61108d565b610bcf611226565b610c3f6110ed565b600260005403610c915760405162461bcd60e51b815260206004820152601f60248201527f5265656e7472616e637947756172643a207265656e7472616e742063616c6c00604482015260640161042b565b60026000556004543414610ce75760405162461bcd60e51b815260206004820152601b60248201527f73656e64207468652065786163742067756172616e7465654665650000000000604482015260640161042b565b6002546001600160a01b0316610d0f5760405162461bcd60e51b815260040161042b9061143f565b60405163e985e9c560e01b815233600482015230602482015283906001600160a01b0382169063e985e9c590604401602060405180830381865afa158015610d5b573d6000803e3d6000fd5b505050506040513d601f19601f82011682018060405250810190610d7f9190611497565b610d9b5760405162461bcd60e51b815260040161042b90611506565b60405163e985e9c560e01b81523360048201523060248201526001600160a01b0382169063e985e9c590604401602060405180830381865afa158015610de5573d6000803e3d6000fd5b505050506040513d601f19601f82011682018060405250810190610e099190611497565b610e255760405162461bcd60e51b815260040161042b90611506565b6001546040516301ffc9a760e01b8152600160a81b90910460e01b6001600160e01b03191660048201526001600160a01b038216906301ffc9a790602401602060405180830381865afa158015610e80573d6000803e3d6000fd5b505050506040513d601f19601f82011682018060405250810190610ea49190611497565b15610f1a576002546040516323b872dd60e01b81523360048201526001600160a01b03918216602482015260448101859052908516906323b872dd90606401600060405180830381600087803b158015610efd57600080fd5b505af1158015610f11573d6000803e3d6000fd5b50505050610f83565b600254604051637921219560e11b81526001600160a01b038087169263f242432a92610f5092339216908890889060040161154e565b600060405180830381600087803b158015610f6a57600080fd5b505af1158015610f7e573d6000803e3d6000fd5b505050505b50604080516060810182526001600160a01b03948516815260208082019485528183019384523360009081526006909152918220905181546001600160a01b03191695169490941784559151600180850191909155905160029093019290925555565b610fee61108d565b600555565b610ffb61108d565b6001600160a01b03909116600090815260076020526040902055565b61101f61108d565b6001600160a01b0381166110845760405162461bcd60e51b815260206004820152602660248201527f4f776e61626c653a206e6577206f776e657220697320746865207a65726f206160448201526564647265737360d01b606482015260840161042b565b610c05816111cc565b6001546001600160a01b03610100909104163314610bcf5760405162461bcd60e51b815260206004820181905260248201527f4f776e61626c653a2063616c6c6572206973206e6f7420746865206f776e6572604482015260640161042b565b60015460ff1615610bcf5760405162461bcd60e51b815260206004820152601060248201526f14185d5cd8589b194e881c185d5cd95960821b604482015260640161042b565b6001600160a01b0381166000908152600760205260408120541561116d57506001600160a01b031660009081526007602052604090205490565b505060035490565b919050565b611182611261565b6001805460ff191690557f5db9ee0a495bf2e6ff9c91a7834c1ba4fdd244a5e8aa4e537bd38aeae4b073aa335b6040516001600160a01b03909116815260200160405180910390a1565b600180546001600160a01b03838116610100818102610100600160a81b031985161790945560405193909204169182907f8be0079c531659141344cd1fd0a4f28419497f9722a3daafe3b4186f6b6457e090600090a35050565b61122e6110ed565b6001805460ff1916811790557f62e78cea01bee320cd4e420270b5ea74000d11b0c9f74754ebdbfc544b05a258336111af565b60015460ff16610bcf5760405162461bcd60e51b815260206004820152601460248201527314185d5cd8589b194e881b9bdd081c185d5cd95960621b604482015260640161042b565b80356001600160a01b038116811461117557600080fd5b6000602082840312156112d357600080fd5b6112dc826112aa565b9392505050565b60008083601f8401126112f557600080fd5b50813567ffffffffffffffff81111561130d57600080fd5b6020830191508360208260051b850101111561132857600080fd5b9250929050565b6000806000806000806060878903121561134857600080fd5b863567ffffffffffffffff8082111561136057600080fd5b61136c8a838b016112e3565b9098509650602089013591508082111561138557600080fd5b6113918a838b016112e3565b909650945060408901359150808211156113aa57600080fd5b506113b789828a016112e3565b979a9699509497509295939492505050565b6000602082840312156113db57600080fd5b5035919050565b6000806000606084860312156113f757600080fd5b611400846112aa565b95602085013595506040909401359392505050565b6000806040838503121561142857600080fd5b611431836112aa565b946020939093013593505050565b60208082526022908201527f4675726e616e63652063616e6e6f742062652074686520307830206164647265604082015261737360f01b606082015260800190565b634e487b7160e01b600052603260045260246000fd5b6000602082840312156114a957600080fd5b815180151581146112dc57600080fd5b634e487b7160e01b600052601160045260246000fd5b600082198211156114e2576114e26114b9565b500190565b6000816000190483118215151615611501576115016114b9565b500290565b60208082526028908201527f546f6b656e206e6f742079657420617070726f76656420666f7220616c6c207460408201526772616e736665727360c01b606082015260800190565b6001600160a01b0394851681529290931660208301526040820152606081019190915260a06080820181905260009082015260c00190565b600060018201611598576115986114b9565b506001019056fea2646970667358221220106ca2be34541251c5aacd1045209d03f120338608ad2585468cb6427278686164736f6c634300080f0033",
  "linkReferences": {},
  "deployedLinkReferences": {}
}